:100000000C9436000C945E000C945E000C945E0020
:100010000C945E000C945E000C945E000C945E00E8
:100020000C945E000C945E000C945E000C945E00D8
:100030000C945E000C945E000C945E000C945E00C8
:100040000C94EB010C945E000C945B020C94350252
:100050000C945E000C945E000C945E000C945E00A8
:100060000C945E000C945E008D024C0411241FBEA3
:10007000CFEFD8E0DEBFCDBF22E0A4E8B1E001C001
:100080001D92A533B207E1F711E0A0E0B1E0E0E393
:10009000FDE002C005900D92A438B107D9F710E039
:1000A000C5E3D0E004C02197FE010E948904C43357
:1000B000D107C9F70E9403030C948B060C9400002F
:1000C0000895CF92DF92EF92FF920F931F93CF93F9
:1000D000DF936C017A018B01C0E0D0E0CE15DF0523
:1000E00081F0D8016D918D01D601ED91FC910190C7
:1000F000F081E02DC6010995892B11F02196EECFF4
:100100007E01C701DF91CF911F910F91FF90EF907A
:10011000DF90CF90089580E090E00895FC01538D2A
:10012000448D252F30E0842F90E0821B930B5417D1
:1001300010F0CF96089501970895FC01918D828D5E
:10014000981761F0828DDF01A80FB11D5D968C912B
:10015000928D9F5F9F73928F90E008958FEF9FEF36
:1001600008952FB7F89480918A0190918B01A09106
:100170008C01B0918D012FBF8093960190939701D0
:10018000A0939801B09399018EE891E00E949D00A0
:1001900097FF26C02FB7F89480918A0190918B0128
:1001A000A0918C01B0918D012FBF4091960150918B
:1001B00097016091980170919901841B950BA60B92
:1001C000B70B40919201509193016091940170910D
:1001D000950184179507A607B707B0F28FEF9FEF39
:1001E0000895FC01918D828D981731F0828DE80F72
:1001F000F11D858D90E008958FEF9FEF0895FC012C
:10020000918D228D892F90E0805C9F4F821B9109F8
:100210008F73992708958EE891E00E94FF0021E0F6
:10022000892B09F420E0822F0895FC01848DDF01E1
:10023000A80FB11DA35ABF4F2C91848D90E0019659
:100240008F739927848FA689B7892C93A089B18948
:100250008C91837080648C93938D848D981306C0E9
:100260000288F389E02D80818F7D80830895EF924D
:10027000FF920F931F93CF93DF93EC0181E0888F60
:100280009B8D8C8D981305C0E889F989808185FD47
:1002900026C0F62E0B8D10E00F5F1F4F0F73112736
:1002A000E02E8C8DE8120CC00FB607FCFACFE8895F
:1002B000F989808185FFF5CFCE010E941501F1CF2C
:1002C0008B8DFE01E80FF11DE35AFF4FF0829FB7BF
:1002D000F8940B8FEA89FB89808180620AC09FB7FE
:1002E000F894EE89FF896083E889F98980818370B9
:1002F000806480839FBF81E090E0DF91CF911F9168
:100300000F91FF90EF900895CF93DF93EC01888DCC
:100310008823C9F0EA89FB89808185FD05C0A88909
:10032000B9898C9186FD0FC00FB607FCF5CF80818F
:1003300085FFF2CFA889B9898C9185FFEDCFCE01D9
:100340000E941501E7CFDF91CF91089580E090E002
:10035000892B29F00E940B0181110C940000089553
:10036000009769F0FC0101900020E9F73197AF0197
:10037000481B590BBC018EE891E00C94610080E0B1
:1003800090E008950E9476060F931F93CF93DF931A
:10039000EC0188819981009729F02A813B812617F9
:1003A000370788F48B016F5F7F4F0E94B00500977D
:1003B00061F0998388831B830A832C813D81232BE1
:1003C00011F4FC01108281E001C080E0DF91CF9147
:1003D0001F910F9108951F920F920FB60F92112443
:1003E0002F933F938F939F93AF93BF9380918A01F5
:1003F00090918B01A0918C01B0918D013091890178
:1004000023E0230F2D3720F40196A11DB11D05C057
:1004100026E8230F0296A11DB11D20938901809328
:100420008A0190938B01A0938C01B0938D018091F0
:10043000850190918601A0918701B0918801019674
:10044000A11DB11D8093850190938601A093870122
:10045000B0938801BF91AF919F918F913F912F9160
:100460000F900FBE0F901F9018951F920F920FB60E
:100470000F9211242F933F934F935F936F937F932A
:100480008F939F93AF93BF93EF93FF938EE891E089
:100490000E941501FF91EF91BF91AF919F918F91B4
:1004A0007F916F915F914F913F912F910F900FBE70
:1004B0000F901F9018951F920F920FB60F92112454
:1004C0002F938F939F93EF93FF93E0919E01F09171
:1004D0009F018081E091A401F091A50182FD12C0ED
:1004E00090818091A7018F5F8F732091A80182175F
:1004F00051F0E091A701F0E0E257FE4F958F809315
:10050000A70101C08081FF91EF919F918F912F9161
:100510000F900FBE0F901F9018951092910110929E
:10052000900188EE93E0A0E0B0E080939201909378
:100530009301A0939401B09395018CE391E0909383
:100540008F0180938E0185EC90E090939B018093C6
:100550009A0184EC90E090939D0180939C0180EC43
:1005600090E090939F0180939E0181EC90E09093A6
:10057000A1018093A00182EC90E09093A30180936D
:10058000A20186EC90E09093A5018093A4011092C3
:10059000A7011092A8011092A9011092AA0110922D
:1005A0002C0210922B0210922E0210922D02109209
:1005B000300210922F0260E070E08BE292E00E9425
:1005C000C40120912B0230912C02811113C02115FE
:1005D000310519F0C9010E94270510922C021092D2
:1005E0002B021092300210922F0210922E021092C3
:1005F0002D0208951092300210922F026DE571E0E5
:10060000C9010C948406CF93DF93CDB7DEB728974A
:100610000FB6F894DEBF0FBECDBF789484B582606C
:1006200084BD84B5816084BD85B5826085BD85B596
:10063000816085BD80916E00816080936E00109214
:10064000810080918100826080938100809181008F
:100650008160809381008091800081608093800020
:100660008091B10084608093B1008091B00081607E
:100670008093B00080917A00846080937A008091AA
:100680007A00826080937A0080917A008160809302
:100690007A0080917A00806880937A001092C1007D
:1006A000E0919E01F0919F0182E08083E0919E01A4
:1006B000F0919F011082E0919A01F0919B011082CC
:1006C000E0919C01F0919D0180E180831092A60150
:1006D000E091A201F091A30186E08083E091A00166
:1006E000F091A101808180618083E091A001F0916F
:1006F000A101808188608083E091A001F091A10137
:10070000808180688083E091A001F091A1018081C7
:100710008F7D808388E3F82E8AE491E00E94B00107
:100720008BE591E00E94B0018EE891E00E94FF000D
:10073000892BD1F31A8219821C821B821E821D8290
:1007400060E070E0CE0101960E94C40129813A81E7
:1007500081110DC02115310519F0C9010E9427052D
:100760001A8219821E821D821C821B8207C01E8271
:100770001D826DE571E0C9010E9484060E94B100EE
:1007800097FD1BC08F8318860D811E810F5F1F4F41
:10079000B801CE0101960E94C401882379F3298112
:1007A0003A818D819E81BE01695F7F4F820F931FC9
:1007B0000E9484061E830D83E1CF80912B029091CD
:1007C0002C02009741F069817A816115710509F069
:1007D00050C00E94270589819A8190932C028093B2
:1007E0002B028B819C8190932E0280932D028D8110
:1007F0009E819093300280932F021A821982898100
:100800009A810E94270540912B0250912C02E6E02C
:10081000F1E060912F027091300220E030E0261765
:10082000370701F14115510529F410928401A4E81C
:10083000B1E003C0DA01A20FB31F019111918C91B5
:100840008F25A4E08A02C00111248017910719F4B2
:100850002F5F3F4FE4CF8EE591E00E94B0018BE522
:1008600091E002C086E791E00E94B0010E94A601DB
:1008700053CF40912D0250912E022D813E8142177F
:10088000530708F4A6CF0E9484068D819E81909321
:10089000300280932F02B3CF80912B0290912C02D3
:1008A0000C9427052F923F924F925F926F927F9206
:1008B0008F929F92AF92BF92CF92DF92EF92FF9270
:1008C0000F931F93CF93DF93CDB7DEB7CA1BDB0B1C
:1008D0000FB6F894DEBF0FBECDBF09942A883988C1
:1008E00048885F846E847D848C849B84AA84B984C8
:1008F000C884DF80EE80FD800C811B81AA81B981D4
:10090000CE0FD11D0FB6F894DEBF0FBECDBFED01E7
:100910000895EE0FFF1F0590F491E02D09940F93B9
:100920001F93CF93DF938230910510F482E090E023
:10093000E0913302F091340220E030E0A0E0B0E03A
:10094000309719F14081518102811381481759076D
:10095000C8F08417950769F4109731F012960C933C
:10096000129713961C9327C00093330210933402FE
:1009700022C02115310519F04217530718F49A01C6
:10098000BD01EF01DF01F801DBCF21153105F9F0E1
:10099000281B390B2430310580F48A819B81611535
:1009A000710521F0FB019383828304C0909334028C
:1009B00080933302FE01329644C0FE01E20FF31F22
:1009C0008193919322503109398328833AC0209131
:1009D000310230913202232B41F4209102013091F7
:1009E00003013093320220933102209100013091B3
:1009F00001012115310541F42DB73EB740910401A5
:100A000050910501241B350BE0913102F091320227
:100A1000E217F307A0F42E1B3F0B2817390778F0D5
:100A2000AC014E5F5F4F2417350748F04E0F5F1F34
:100A300050933202409331028193919302C0E0E0DF
:100A4000F0E0CF01DF91CF911F910F910895CF93E7
:100A5000DF93009709F481C0FC0132971382128260
:100A6000A0913302B0913402109781F4208131813A
:100A7000820F931F209131023091320228173907DB
:100A800051F5F0933202E093310267C0ED0120E0AE
:100A900030E0CE17DF0740F44A815B819E014115AB
:100AA0005105F1F0EA01F5CFD383C2834081518132
:100AB000840F951FC817D90759F488819981840F2D
:100AC000951F0296918380838A819B819383828381
:100AD0002115310529F4F0933402E09333023DC02F
:100AE000E901FB83EA8349915991C40FD51FEC17A3
:100AF000FD0761F480819181840F951F0296E901C1
:100B000099838883828193819B838A83E0E0F0E0EC
:100B100012968D919C911397009719F0FD01DC01BD
:100B2000F7CF8D919C9111979D012E5F3F4F820FC2
:100B3000931F20913102309132022817390769F44E
:100B4000309729F4109234021092330202C01382BB
:100B50001282B0933202A0933102DF91CF910895B7
:100B6000A0E0B0E0E6EBF5E00C945604EC01009751
:100B700021F4CB010E948F04B4C0FC01E60FF71FE3
:100B80009C0122503109E217F30708F4A8C0D901EB
:100B90000D911C91119706171707B0F0053011053C
:100BA00008F49BC0C80104978617970708F495C0FE
:100BB00002501109061B170B019311936D937C933F
:100BC000CF010E94270589C05B01A01AB10A4C0120
:100BD000800E911EA0913302B0913402612C712CD1
:100BE000E12CF12C109709F446C08D919C9111973E
:100BF000A815B905B1F56C0142E0C40ED11CCA14A8
:100C0000DB0478F14C018A189B08640142E0C40EB1
:100C1000D11C1296BC9012971396AC91B5E0CB16EE
:100C2000D10440F0B282A38391828082D9016D9376
:100C30007C9309C00E5F1F4F800F911FF9019183B4
:100C40008083EB2DFA2FE114F10431F0D7011396D4
:100C5000FC93EE93129741C0F0933402E093330279
:100C60003CC06816790608F43C017D0112960D908F
:100C7000BC91A02DB7CF809131029091320288169D
:100C80009906E1F466167706C8F480910001909108
:100C90000101009741F48DB79EB740910401509136
:100CA0000501841B950BE817F907C8F4F09332028D
:100CB000E0933102F901718360830FC0CB010E9480
:100CC0008F047C01009759F0A801BE010E947B06A9
:100CD000CE010E942705C70104C0CE0102C080E0FA
:100CE00090E0CDB7DEB7EEE00C94720481E090E0C6
:100CF000F8940C948B06FB01DC0102C001900D926C
:100D000041505040D8F70895FB01DC0101900D924D
:100D10000020E1F7089510E0C5E3D0E004C0FE0133
:100D20000E9489042196C633D107C9F7F894FFCFF2
:100D3000000035028000440158016C013001780147
:100D40000C013000380128019C01240034009C0172
:100D500028012C0030005001500104019C012C009E
:100D6000300034000401140100000000370161006C
:100D70008E008401FF009D00F100456E74657220B5
:100D800074686520666C61673A20000D0A00536F35
:100D90007272792E2E2E2E57726F6E6720696E70CA
:100DA0007574203A2800436F7272656374212120A4
:040DB0000A20000015
:00000001FF
